{
  "address": "0x9310227d7253703af033F72797c9575d7C8649A7",
  "abi": [
    {
      "anonymous": false,
      "inputs": [
        {
          "indexed": true,
          "internalType": "address",
          "name": "",
          "type": "address"
        },
        {
          "indexed": true,
          "internalType": "contract Timelock",
          "name": "",
          "type": "address"
        },
        {
          "indexed": false,
          "internalType": "uint256",
          "name": "",
          "type": "uint256"
        },
        {
          "indexed": false,
          "internalType": "uint256",
          "name": "",
          "type": "uint256"
        },
        {
          "indexed": false,
          "internalType": "uint256",
          "name": "",
          "type": "uint256"
        }
      ],
      "name": "CreatedTimelockContract",
      "type": "event"
    },
    {
      "inputs": [
        {
          "internalType": "address",
          "name": "owner",
          "type": "address"
        },
        {
          "internalType": "contract IERC20",
          "name": "token",
          "type": "address"
        },
        {
          "internalType": "uint256",
          "name": "payoutAmount",
          "type": "uint256"
        },
        {
          "internalType": "uint256",
          "name": "unlockTimestamp",
          "type": "uint256"
        },
        {
          "internalType": "uint256",
          "name": "recoverTimestamp",
          "type": "uint256"
        }
      ],
      "name": "createTimelock",
      "outputs": [
        {
          "internalType": "contract Timelock",
          "name": "",
          "type": "address"
        }
      ],
      "stateMutability": "nonpayable",
      "type": "function"
    }
  ],
  "transactionHash": "0x134fa78e947c976930f06a30d46feb13b85412f60362a2e366ee772c7bb0f2c5",
  "args": [],
  "solcInputHash": "1ee27e9077e25c85d4fc70d3e0bab5f1",
  "bytecode": "0x608060405234801561001057600080fd5b50610e1c806100206000396000f3fe608060405234801561001057600080fd5b506004361061002b5760003560e01c80636acaa16e14610030575b600080fd5b61004361003e36600461016e565b61005f565b6040516001600160a01b03909116815260200160405180910390f35b60008060405161006e90610161565b604051809103906000f08015801561008a573d6000803e3d6000fd5b5060405163344fe42d60e21b81526001600160a01b03898116600483015288811660248301526044820188905260648201879052608482018690529192509082169063d13f90b49060a401600060405180830381600087803b1580156100ef57600080fd5b505af1158015610103573d6000803e3d6000fd5b505060408051888152602081018890529081018690526001600160a01b0380851693508a1691507f4b4ae6657115b65541e2282bdb779afb0c0554f3165ee123656b52053a8312f29060600160405180910390a39695505050505050565b610c0f806101d883390190565b600080600080600060a0868803121561018657600080fd5b8535610191816101bf565b945060208601356101a1816101bf565b94979496505050506040830135926060810135926080909101359150565b6001600160a01b03811681146101d457600080fd5b5056fe608060405234801561001057600080fd5b50610bef806100206000396000f3fe608060405234801561001057600080fd5b50600436106100935760003560e01c8063d13f90b411610066578063d13f90b41461011e578063dc5f31e014610131578063def1e7ae14610148578063e3e3acdf14610150578063fdb807741461015957600080fd5b80634e71d92d14610098578063ac91965f146100a2578063be04e3d5146100dd578063ce74602414610116575b600080fd5b6100a061016c565b005b6100b96004546000546001600160a01b0390911691565b604080516001600160a01b0390931683526020830191909152015b60405180910390f35b6101096100eb36600461090f565b6001600160a01b031660009081526005602052604090205460ff1690565b6040516100d49190610ae7565b6100a06102f5565b6100a061012c366004610933565b6104c6565b61013a60015481565b6040519081526020016100d4565b60025461013a565b61013a60025481565b6100a0610167366004610984565b6105cc565b60025433904210156101a95760405162461bcd60e51b81526020600482015260016024820152603760f81b60448201526064015b60405180910390fd5b60016001600160a01b03821660009081526005602052604090205460ff1660028111156101d8576101d8610b5f565b146102095760405162461bcd60e51b81526020600482015260016024820152601960f91b60448201526064016101a0565b6004805460005460405163a9059cbb60e01b81526001600160a01b0385811694820194909452602481019190915291169063a9059cbb90604401602060405180830381600087803b15801561025d57600080fd5b505af1158015610271573d6000803e3d6000fd5b505050506040513d601f19601f820116820180604052508101906102959190610a50565b506001600160a01b0381166000818152600560209081526040808320805460ff1916600217905591548251938452908301527fd8138f8a3f377c5259ca548e70e4c2de94f129f5a11036a15b69513cba2b426a910160405180910390a150565b6003546001600160a01b031633146103335760405162461bcd60e51b81526020600482015260016024820152603360f81b60448201526064016101a0565b600154339042101561036b5760405162461bcd60e51b81526020600482015260016024820152601b60f91b60448201526064016101a0565b600480546040516370a0823160e01b815230928101929092526000916001600160a01b03909116906370a082319060240160206040518083038186803b1580156103b457600080fd5b505afa1580156103c8573d6000803e3d6000fd5b505050506040513d601f19601f820116820180604052508101906103ec9190610a72565b604080516001600160a01b0385168152602081018390529192507f8c1256b8896378cd5044f80c202f9772b9d77dc85c8a6eb51967210b09bfaa28910160405180910390a16004805460405163a9059cbb60e01b81526001600160a01b03858116938201939093526024810184905291169063a9059cbb90604401602060405180830381600087803b15801561048157600080fd5b505af1158015610495573d6000803e3d6000fd5b505050506040513d601f19601f820116820180604052508101906104b99190610a50565b50816001600160a01b0316ff5b6001600160a01b038516158015906104e757506003546001600160a01b0316155b6105185760405162461bcd60e51b8152602060048201526002602482015261189960f11b60448201526064016101a0565b600480546001600160a01b038087166001600160a01b03199283161790925560038054928816929091169190911790556000839055428211801561055b57504281115b61058b5760405162461bcd60e51b81526020600482015260016024820152603160f81b60448201526064016101a0565b8181116105be5760405162461bcd60e51b81526020600482015260016024820152600760fb1b60448201526064016101a0565b600291909155600155505050565b6003546001600160a01b0316331461060a5760405162461bcd60e51b81526020600482015260016024820152603360f81b60448201526064016101a0565b4261061460025490565b116106465760405162461bcd60e51b8152602060048201526002602482015261031360f41b60448201526064016101a0565b60005481516106559190610b0f565b60048054604051636eb1769f60e11b815233928101929092523060248301526001600160a01b03169063dd62ed3e9060440160206040518083038186803b15801561069f57600080fd5b505afa1580156106b3573d6000803e3d6000fd5b505050506040513d601f19601f820116820180604052508101906106d79190610a72565b101561070a5760405162461bcd60e51b8152602060048201526002602482015261313160f01b60448201526064016101a0565b80516004546000546001600160a01b03909116906323b872dd9033903090610733908690610b0f565b6040516001600160e01b031960e086901b1681526001600160a01b0393841660048201529290911660248301526044820152606401602060405180830381600087803b15801561078257600080fd5b505af1158015610796573d6000803e3d6000fd5b505050506040513d601f19601f820116820180604052508101906107ba9190610a50565b5060005b818110156108b3576000600560008584815181106107de576107de610b75565b6020908102919091018101516001600160a01b031682528101919091526040016000205460ff16600281111561081657610816610b5f565b146108475760405162461bcd60e51b81526020600482015260016024820152603960f81b60448201526064016101a0565b60016005600085848151811061085f5761085f610b75565b6020908102919091018101516001600160a01b03168252810191909152604001600020805460ff1916600183600281111561089c5761089c610b5f565b0217905550806108ab81610b2e565b9150506107be565b506003546040517fa0cd582431bf0ccaa00246b434e59ebd5f63aa3d856a1d9328e7023b18cc63af916108f3916001600160a01b03909116908590610a8b565b60405180910390a15050565b803561090a81610ba1565b919050565b60006020828403121561092157600080fd5b813561092c81610ba1565b9392505050565b600080600080600060a0868803121561094b57600080fd5b853561095681610ba1565b9450602086013561096681610ba1565b94979496505050506040830135926060810135926080909101359150565b6000602080838503121561099757600080fd5b823567ffffffffffffffff808211156109af57600080fd5b818501915085601f8301126109c357600080fd5b8135818111156109d5576109d5610b8b565b8060051b604051601f19603f830116810181811085821117156109fa576109fa610b8b565b604052828152858101935084860182860187018a1015610a1957600080fd5b600095505b83861015610a4357610a2f816108ff565b855260019590950194938601938601610a1e565b5098975050505050505050565b600060208284031215610a6257600080fd5b8151801515811461092c57600080fd5b600060208284031215610a8457600080fd5b5051919050565b6001600160a01b038381168252604060208084018290528451918401829052600092858201929091906060860190855b81811015610ad9578551851683529483019491830191600101610abb565b509098975050505050505050565b6020810160038310610b0957634e487b7160e01b600052602160045260246000fd5b91905290565b6000816000190483118215151615610b2957610b29610b49565b500290565b6000600019821415610b4257610b42610b49565b5060010190565b634e487b7160e01b600052601160045260246000fd5b634e487b7160e01b600052602160045260246000fd5b634e487b7160e01b600052603260045260246000fd5b634e487b7160e01b600052604160045260246000fd5b6001600160a01b0381168114610bb657600080fd5b5056fea26469706673582212204d8f6198724a18dadf6fa1e79757d538f7cf1db042dc9f3fed4f37f3d7ca0dea64736f6c63430008060033a264697066735822122092ddce58435e1e5053a86638c947ed8ba1c80b68f82e18822c41001c3543870664736f6c63430008060033",
  "devdoc": {
    "kind": "dev",
    "methods": {},
    "version": 1
  },
  "userdoc": {
    "kind": "user",
    "methods": {},
    "notice": "Factory contract that creates a timelock given global timelock parameters.",
    "version": 1
  },
  "storageLayout": {
    "storage": [],
    "types": null
  }
}